{
  "contractName": "AgriPolicyContract2",
  "abi": [
    {
      "constant": true,
      "inputs": [
        {
          "name": "",
          "type": "address"
        }
      ],
      "name": "customerPolicycount",
      "outputs": [
        {
          "name": "",
          "type": "uint256"
        }
      ],
      "payable": false,
      "stateMutability": "view",
      "type": "function"
    },
    {
      "constant": true,
      "inputs": [
        {
          "name": "",
          "type": "uint256"
        }
      ],
      "name": "policyToCustomer",
      "outputs": [
        {
          "name": "",
          "type": "address"
        }
      ],
      "payable": false,
      "stateMutability": "view",
      "type": "function"
    },
    {
      "anonymous": false,
      "inputs": [
        {
          "indexed": false,
          "name": "policyId",
          "type": "uint256"
        }
      ],
      "name": "NewPolicy",
      "type": "event"
    },
    {
      "constant": false,
      "inputs": [
        {
          "name": "_customer",
          "type": "address"
        },
        {
          "name": "_premium",
          "type": "uint256"
        }
      ],
      "name": "createPolicy",
      "outputs": [
        {
          "name": "_policyId",
          "type": "uint256"
        }
      ],
      "payable": false,
      "stateMutability": "nonpayable",
      "type": "function"
    },
    {
      "constant": true,
      "inputs": [
        {
          "name": "_policyId",
          "type": "uint256"
        }
      ],
      "name": "getPolicyData",
      "outputs": [
        {
          "name": "_customer",
          "type": "address"
        }
      ],
      "payable": false,
      "stateMutability": "view",
      "type": "function"
    }
  ],
  "bytecode": "0x608060405234801561001057600080fd5b5061043f806100206000396000f300608060405260043610610062576000357c0100000000000000000000000000000000000000000000000000000000900463ffffffff168063141786b9146100675780637a5402e9146100be5780639abb9a281461012b578063f1d84bd11461018c575b600080fd5b34801561007357600080fd5b506100a8600480360381019080803573ffffffffffffffffffffffffffffffffffffffff1690602001909291905050506101f9565b6040518082815260200191505060405180910390f35b3480156100ca57600080fd5b506100e960048036038101908080359060200190929190505050610211565b604051808273ffffffffffffffffffffffffffffffffffffffff1673ffffffffffffffffffffffffffffffffffffffff16815260200191505060405180910390f35b34801561013757600080fd5b50610176600480360381019080803573ffffffffffffffffffffffffffffffffffffffff1690602001909291908035906020019092919050505061024e565b6040518082815260200191505060405180910390f35b34801561019857600080fd5b506101b7600480360381019080803590602001909291905050506103e0565b604051808273ffffffffffffffffffffffffffffffffffffffff1673ffffffffffffffffffffffffffffffffffffffff16815260200191505060405180910390f35b60026020528060005260406000206000915090505481565b60006001600083815260200190815260200160002060009054906101000a900473ffffffffffffffffffffffffffffffffffffffff169050919050565b6000806001600060408051908101604052808773ffffffffffffffffffffffffffffffffffffffff168152602001868152509080600181540180825580915050906001820390600052602060002090600202016000909192909190915060008201518160000160006101000a81548173ffffffffffffffffffffffffffffffffffffffff021916908373ffffffffffffffffffffffffffffffffffffffff160217905550602082015181600101555050039050336001600083815260200190815260200160002060006101000a81548173ffffffffffffffffffffffffffffffffffffffff021916908373ffffffffffffffffffffffffffffffffffffffff160217905550600260003373ffffffffffffffffffffffffffffffffffffffff1673ffffffffffffffffffffffffffffffffffffffff168152602001908152602001600020600081548092919060010191905055507f174c94eb4ef02e690e5bd01790c284af662a414381f1c631bf388a8850a5db13816040518082815260200191505060405180910390a15092915050565b60016020528060005260406000206000915054906101000a900473ffffffffffffffffffffffffffffffffffffffff16815600a165627a7a723058200dc34b61a24152bb57c84630359aa3088d81990d04657d4bd7889dcfb87ff8850029",
  "source": "pragma solidity ^0.4.9;\r\n\r\nimport \"./AgriInsuranceDatabaseModel.sol\";\r\n\r\n\r\ncontract AgriPolicyContract2  {\r\n      event NewPolicy(uint policyId);\r\n\r\n        struct Policy {\r\n\r\n       //uint policyId;\r\n          //  the customer\r\n        address customer;\r\n        //  premium\r\n        uint premium;\r\n\r\n    }\r\n\r\n    Policy[] policies ;\r\n   //List of Customers\r\n    mapping (uint => address) public policyToCustomer;\r\n    //List of customer policies\r\n    mapping (address => uint)public customerPolicycount;\r\n\r\n    //Customer details\r\n    struct Customer  {\r\n        string name;\r\n        string location;\r\n        bool isKYVDone;\r\n        string AadharIDNumber;\r\n    }\r\n\r\n    //Create a new Policy for customer\r\n    function createPolicy(address _customer, uint _premium) returns (uint _policyId) {\r\n       uint id  = policies.push(Policy(_customer,_premium))-1;\r\n       policyToCustomer[id] = msg.sender;\r\n        customerPolicycount[msg.sender]++;\r\n        NewPolicy(id);\r\n\r\n    }\r\n    //Get Policy Details of customers\r\n    function getPolicyData(uint _policyId) view returns (address _customer) {\r\n        return policyToCustomer[_policyId];\r\n    }\r\n}\r\n",
  "sourcePath": "F:\\AJ\\GITHUB\\AgriInsurance\\contracts\\AgriPolicyContract.sol",
  "compiler": {
    "name": "solc",
    "version": "0.4.24+commit.e67f0147.Emscripten.clang"
  },
  "schemaVersion": "2.0.0",
  "updatedAt": "2018-07-10T09:52:49.677Z"
}